{
  "_format": "hh3-artifact-1",
  "contractName": "NFTMarketplace",
  "sourceName": "contracts/NFTMarketplace.sol",
  "abi": [
    {
      "inputs": [],
      "stateMutability": "nonpayable",
      "type": "constructor"
    },
    {
      "inputs": [
        {
          "internalType": "address",
          "name": "sender",
          "type": "address"
        },
        {
          "internalType": "uint256",
          "name": "tokenId",
          "type": "uint256"
        },
        {
          "internalType": "address",
          "name": "owner",
          "type": "address"
        }
      ],
      "name": "ERC721IncorrectOwner",
      "type": "error"
    },
    {
      "inputs": [
        {
          "internalType": "address",
          "name": "operator",
          "type": "address"
        },
        {
          "internalType": "uint256",
          "name": "tokenId",
          "type": "uint256"
        }
      ],
      "name": "ERC721InsufficientApproval",
      "type": "error"
    },
    {
      "inputs": [
        {
          "internalType": "address",
          "name": "approver",
          "type": "address"
        }
      ],
      "name": "ERC721InvalidApprover",
      "type": "error"
    },
    {
      "inputs": [
        {
          "internalType": "address",
          "name": "operator",
          "type": "address"
        }
      ],
      "name": "ERC721InvalidOperator",
      "type": "error"
    },
    {
      "inputs": [
        {
          "internalType": "address",
          "name": "owner",
          "type": "address"
        }
      ],
      "name": "ERC721InvalidOwner",
      "type": "error"
    },
    {
      "inputs": [
        {
          "internalType": "address",
          "name": "receiver",
          "type": "address"
        }
      ],
      "name": "ERC721InvalidReceiver",
      "type": "error"
    },
    {
      "inputs": [
        {
          "internalType": "address",
          "name": "sender",
          "type": "address"
        }
      ],
      "name": "ERC721InvalidSender",
      "type": "error"
    },
    {
      "inputs": [
        {
          "internalType": "uint256",
          "name": "tokenId",
          "type": "uint256"
        }
      ],
      "name": "ERC721NonexistentToken",
      "type": "error"
    },
    {
      "inputs": [],
      "name": "ReentrancyGuardReentrantCall",
      "type": "error"
    },
    {
      "anonymous": false,
      "inputs": [
        {
          "indexed": true,
          "internalType": "address",
          "name": "owner",
          "type": "address"
        },
        {
          "indexed": true,
          "internalType": "address",
          "name": "approved",
          "type": "address"
        },
        {
          "indexed": true,
          "internalType": "uint256",
          "name": "tokenId",
          "type": "uint256"
        }
      ],
      "name": "Approval",
      "type": "event"
    },
    {
      "anonymous": false,
      "inputs": [
        {
          "indexed": true,
          "internalType": "address",
          "name": "owner",
          "type": "address"
        },
        {
          "indexed": true,
          "internalType": "address",
          "name": "operator",
          "type": "address"
        },
        {
          "indexed": false,
          "internalType": "bool",
          "name": "approved",
          "type": "bool"
        }
      ],
      "name": "ApprovalForAll",
      "type": "event"
    },
    {
      "anonymous": false,
      "inputs": [
        {
          "indexed": false,
          "internalType": "uint256",
          "name": "auctionId",
          "type": "uint256"
        },
        {
          "indexed": false,
          "internalType": "uint256",
          "name": "tokenId",
          "type": "uint256"
        },
        {
          "indexed": false,
          "internalType": "uint256",
          "name": "startingPrice",
          "type": "uint256"
        },
        {
          "indexed": false,
          "internalType": "uint256",
          "name": "endTime",
          "type": "uint256"
        }
      ],
      "name": "AuctionCreated",
      "type": "event"
    },
    {
      "anonymous": false,
      "inputs": [
        {
          "indexed": false,
          "internalType": "uint256",
          "name": "auctionId",
          "type": "uint256"
        },
        {
          "indexed": true,
          "internalType": "address",
          "name": "winner",
          "type": "address"
        },
        {
          "indexed": false,
          "internalType": "uint256",
          "name": "amount",
          "type": "uint256"
        }
      ],
      "name": "AuctionEnded",
      "type": "event"
    },
    {
      "anonymous": false,
      "inputs": [
        {
          "indexed": false,
          "internalType": "uint256",
          "name": "_fromTokenId",
          "type": "uint256"
        },
        {
          "indexed": false,
          "internalType": "uint256",
          "name": "_toTokenId",
          "type": "uint256"
        }
      ],
      "name": "BatchMetadataUpdate",
      "type": "event"
    },
    {
      "anonymous": false,
      "inputs": [
        {
          "indexed": false,
          "internalType": "uint256",
          "name": "auctionId",
          "type": "uint256"
        },
        {
          "indexed": true,
          "internalType": "address",
          "name": "bidder",
          "type": "address"
        },
        {
          "indexed": false,
          "internalType": "uint256",
          "name": "amount",
          "type": "uint256"
        }
      ],
      "name": "BidPlaced",
      "type": "event"
    },
    {
      "anonymous": false,
      "inputs": [
        {
          "indexed": false,
          "internalType": "uint256",
          "name": "_tokenId",
          "type": "uint256"
        }
      ],
      "name": "MetadataUpdate",
      "type": "event"
    },
    {
      "anonymous": false,
      "inputs": [
        {
          "indexed": false,
          "internalType": "uint256",
          "name": "tokenId",
          "type": "uint256"
        },
        {
          "indexed": true,
          "internalType": "address",
          "name": "seller",
          "type": "address"
        },
        {
          "indexed": false,
          "internalType": "uint256",
          "name": "price",
          "type": "uint256"
        }
      ],
      "name": "NFTListed",
      "type": "event"
    },
    {
      "anonymous": false,
      "inputs": [
        {
          "indexed": false,
          "internalType": "uint256",
          "name": "tokenId",
          "type": "uint256"
        },
        {
          "indexed": true,
          "internalType": "address",
          "name": "owner",
          "type": "address"
        }
      ],
      "name": "NFTMinted",
      "type": "event"
    },
    {
      "anonymous": false,
      "inputs": [
        {
          "indexed": false,
          "internalType": "uint256",
          "name": "tokenId",
          "type": "uint256"
        },
        {
          "indexed": true,
          "internalType": "address",
          "name": "buyer",
          "type": "address"
        },
        {
          "indexed": false,
          "internalType": "uint256",
          "name": "price",
          "type": "uint256"
        }
      ],
      "name": "NFTSold",
      "type": "event"
    },
    {
      "anonymous": false,
      "inputs": [
        {
          "indexed": true,
          "internalType": "address",
          "name": "from",
          "type": "address"
        },
        {
          "indexed": true,
          "internalType": "address",
          "name": "to",
          "type": "address"
        },
        {
          "indexed": true,
          "internalType": "uint256",
          "name": "tokenId",
          "type": "uint256"
        }
      ],
      "name": "Transfer",
      "type": "event"
    },
    {
      "inputs": [
        {
          "internalType": "string",
          "name": "tokenUri",
          "type": "string"
        },
        {
          "internalType": "address payable",
          "name": "_receiverAddr",
          "type": "address"
        }
      ],
      "name": "NFTminter",
      "outputs": [],
      "stateMutability": "nonpayable",
      "type": "function"
    },
    {
      "inputs": [
        {
          "internalType": "address",
          "name": "to",
          "type": "address"
        },
        {
          "internalType": "uint256",
          "name": "tokenId",
          "type": "uint256"
        }
      ],
      "name": "approve",
      "outputs": [],
      "stateMutability": "nonpayable",
      "type": "function"
    },
    {
      "inputs": [
        {
          "internalType": "address",
          "name": "owner",
          "type": "address"
        }
      ],
      "name": "balanceOf",
      "outputs": [
        {
          "internalType": "uint256",
          "name": "",
          "type": "uint256"
        }
      ],
      "stateMutability": "view",
      "type": "function"
    },
    {
      "inputs": [
        {
          "internalType": "uint256",
          "name": "tokenId",
          "type": "uint256"
        }
      ],
      "name": "buyNFT",
      "outputs": [],
      "stateMutability": "payable",
      "type": "function"
    },
    {
      "inputs": [
        {
          "internalType": "uint256",
          "name": "tokenId",
          "type": "uint256"
        },
        {
          "internalType": "uint256",
          "name": "startingPrice",
          "type": "uint256"
        },
        {
          "internalType": "uint256",
          "name": "durationSeconds",
          "type": "uint256"
        }
      ],
      "name": "createAuction",
      "outputs": [
        {
          "internalType": "uint256",
          "name": "auctionId",
          "type": "uint256"
        }
      ],
      "stateMutability": "nonpayable",
      "type": "function"
    },
    {
      "inputs": [
        {
          "internalType": "uint256",
          "name": "auctionId",
          "type": "uint256"
        }
      ],
      "name": "endAuction",
      "outputs": [],
      "stateMutability": "nonpayable",
      "type": "function"
    },
    {
      "inputs": [
        {
          "internalType": "uint256",
          "name": "auctionId",
          "type": "uint256"
        }
      ],
      "name": "endAuctionEarly",
      "outputs": [],
      "stateMutability": "nonpayable",
      "type": "function"
    },
    {
      "inputs": [],
      "name": "getActiveAuctions",
      "outputs": [
        {
          "components": [
            {
              "internalType": "uint256",
              "name": "auctionId",
              "type": "uint256"
            },
            {
              "internalType": "uint256",
              "name": "tokenId",
              "type": "uint256"
            },
            {
              "internalType": "address payable",
              "name": "seller",
              "type": "address"
            },
            {
              "internalType": "uint256",
              "name": "startingPrice",
              "type": "uint256"
            },
            {
              "internalType": "uint256",
              "name": "highestBid",
              "type": "uint256"
            },
            {
              "internalType": "address payable",
              "name": "highestBidder",
              "type": "address"
            },
            {
              "internalType": "uint256",
              "name": "endTime",
              "type": "uint256"
            },
            {
              "internalType": "bool",
              "name": "ended",
              "type": "bool"
            }
          ],
          "internalType": "struct NFTMarketplace.Auction[]",
          "name": "",
          "type": "tuple[]"
        }
      ],
      "stateMutability": "view",
      "type": "function"
    },
    {
      "inputs": [],
      "name": "getAllNFTs",
      "outputs": [
        {
          "components": [
            {
              "internalType": "uint256",
              "name": "tokenId",
              "type": "uint256"
            },
            {
              "internalType": "address payable",
              "name": "owner",
              "type": "address"
            },
            {
              "internalType": "uint256",
              "name": "price",
              "type": "uint256"
            },
            {
              "internalType": "bool",
              "name": "forSale",
              "type": "bool"
            }
          ],
          "internalType": "struct NFTMarketplace.ListedToken[]",
          "name": "",
          "type": "tuple[]"
        }
      ],
      "stateMutability": "view",
      "type": "function"
    },
    {
      "inputs": [
        {
          "internalType": "uint256",
          "name": "tokenId",
          "type": "uint256"
        }
      ],
      "name": "getApproved",
      "outputs": [
        {
          "internalType": "address",
          "name": "",
          "type": "address"
        }
      ],
      "stateMutability": "view",
      "type": "function"
    },
    {
      "inputs": [
        {
          "internalType": "uint256",
          "name": "auctionId",
          "type": "uint256"
        }
      ],
      "name": "getAuction",
      "outputs": [
        {
          "components": [
            {
              "internalType": "uint256",
              "name": "auctionId",
              "type": "uint256"
            },
            {
              "internalType": "uint256",
              "name": "tokenId",
              "type": "uint256"
            },
            {
              "internalType": "address payable",
              "name": "seller",
              "type": "address"
            },
            {
              "internalType": "uint256",
              "name": "startingPrice",
              "type": "uint256"
            },
            {
              "internalType": "uint256",
              "name": "highestBid",
              "type": "uint256"
            },
            {
              "internalType": "address payable",
              "name": "highestBidder",
              "type": "address"
            },
            {
              "internalType": "uint256",
              "name": "endTime",
              "type": "uint256"
            },
            {
              "internalType": "bool",
              "name": "ended",
              "type": "bool"
            }
          ],
          "internalType": "struct NFTMarketplace.Auction",
          "name": "",
          "type": "tuple"
        }
      ],
      "stateMutability": "view",
      "type": "function"
    },
    {
      "inputs": [
        {
          "internalType": "address",
          "name": "userAddr",
          "type": "address"
        }
      ],
      "name": "getMyNFTs",
      "outputs": [
        {
          "components": [
            {
              "internalType": "uint256",
              "name": "tokenId",
              "type": "uint256"
            },
            {
              "internalType": "address payable",
              "name": "owner",
              "type": "address"
            },
            {
              "internalType": "uint256",
              "name": "price",
              "type": "uint256"
            },
            {
              "internalType": "bool",
              "name": "forSale",
              "type": "bool"
            }
          ],
          "internalType": "struct NFTMarketplace.ListedToken[]",
          "name": "",
          "type": "tuple[]"
        }
      ],
      "stateMutability": "view",
      "type": "function"
    },
    {
      "inputs": [
        {
          "internalType": "uint256",
          "name": "auctionId",
          "type": "uint256"
        }
      ],
      "name": "getTimeLeft",
      "outputs": [
        {
          "internalType": "uint256",
          "name": "",
          "type": "uint256"
        }
      ],
      "stateMutability": "view",
      "type": "function"
    },
    {
      "inputs": [
        {
          "internalType": "uint256",
          "name": "",
          "type": "uint256"
        }
      ],
      "name": "idToAuction",
      "outputs": [
        {
          "internalType": "uint256",
          "name": "auctionId",
          "type": "uint256"
        },
        {
          "internalType": "uint256",
          "name": "tokenId",
          "type": "uint256"
        },
        {
          "internalType": "address payable",
          "name": "seller",
          "type": "address"
        },
        {
          "internalType": "uint256",
          "name": "startingPrice",
          "type": "uint256"
        },
        {
          "internalType": "uint256",
          "name": "highestBid",
          "type": "uint256"
        },
        {
          "internalType": "address payable",
          "name": "highestBidder",
          "type": "address"
        },
        {
          "internalType": "uint256",
          "name": "endTime",
          "type": "uint256"
        },
        {
          "internalType": "bool",
          "name": "ended",
          "type": "bool"
        }
      ],
      "stateMutability": "view",
      "type": "function"
    },
    {
      "inputs": [
        {
          "internalType": "uint256",
          "name": "",
          "type": "uint256"
        }
      ],
      "name": "idToListedToken",
      "outputs": [
        {
          "internalType": "uint256",
          "name": "tokenId",
          "type": "uint256"
        },
        {
          "internalType": "address payable",
          "name": "owner",
          "type": "address"
        },
        {
          "internalType": "uint256",
          "name": "price",
          "type": "uint256"
        },
        {
          "internalType": "bool",
          "name": "forSale",
          "type": "bool"
        }
      ],
      "stateMutability": "view",
      "type": "function"
    },
    {
      "inputs": [
        {
          "internalType": "address",
          "name": "owner",
          "type": "address"
        },
        {
          "internalType": "address",
          "name": "operator",
          "type": "address"
        }
      ],
      "name": "isApprovedForAll",
      "outputs": [
        {
          "internalType": "bool",
          "name": "",
          "type": "bool"
        }
      ],
      "stateMutability": "view",
      "type": "function"
    },
    {
      "inputs": [
        {
          "internalType": "uint256",
          "name": "tokenId",
          "type": "uint256"
        },
        {
          "internalType": "uint256",
          "name": "price",
          "type": "uint256"
        }
      ],
      "name": "listNFTForSale",
      "outputs": [],
      "stateMutability": "nonpayable",
      "type": "function"
    },
    {
      "inputs": [],
      "name": "name",
      "outputs": [
        {
          "internalType": "string",
          "name": "",
          "type": "string"
        }
      ],
      "stateMutability": "view",
      "type": "function"
    },
    {
      "inputs": [],
      "name": "owner",
      "outputs": [
        {
          "internalType": "address payable",
          "name": "",
          "type": "address"
        }
      ],
      "stateMutability": "view",
      "type": "function"
    },
    {
      "inputs": [
        {
          "internalType": "uint256",
          "name": "tokenId",
          "type": "uint256"
        }
      ],
      "name": "ownerOf",
      "outputs": [
        {
          "internalType": "address",
          "name": "",
          "type": "address"
        }
      ],
      "stateMutability": "view",
      "type": "function"
    },
    {
      "inputs": [
        {
          "internalType": "uint256",
          "name": "",
          "type": "uint256"
        },
        {
          "internalType": "address",
          "name": "",
          "type": "address"
        }
      ],
      "name": "pendingReturns",
      "outputs": [
        {
          "internalType": "uint256",
          "name": "",
          "type": "uint256"
        }
      ],
      "stateMutability": "view",
      "type": "function"
    },
    {
      "inputs": [
        {
          "internalType": "uint256",
          "name": "auctionId",
          "type": "uint256"
        }
      ],
      "name": "placeBid",
      "outputs": [],
      "stateMutability": "payable",
      "type": "function"
    },
    {
      "inputs": [],
      "name": "platformFeePercent",
      "outputs": [
        {
          "internalType": "uint256",
          "name": "",
          "type": "uint256"
        }
      ],
      "stateMutability": "view",
      "type": "function"
    },
    {
      "inputs": [
        {
          "internalType": "address",
          "name": "from",
          "type": "address"
        },
        {
          "internalType": "address",
          "name": "to",
          "type": "address"
        },
        {
          "internalType": "uint256",
          "name": "tokenId",
          "type": "uint256"
        }
      ],
      "name": "safeTransferFrom",
      "outputs": [],
      "stateMutability": "nonpayable",
      "type": "function"
    },
    {
      "inputs": [
        {
          "internalType": "address",
          "name": "from",
          "type": "address"
        },
        {
          "internalType": "address",
          "name": "to",
          "type": "address"
        },
        {
          "internalType": "uint256",
          "name": "tokenId",
          "type": "uint256"
        },
        {
          "internalType": "bytes",
          "name": "data",
          "type": "bytes"
        }
      ],
      "name": "safeTransferFrom",
      "outputs": [],
      "stateMutability": "nonpayable",
      "type": "function"
    },
    {
      "inputs": [
        {
          "internalType": "address",
          "name": "operator",
          "type": "address"
        },
        {
          "internalType": "bool",
          "name": "approved",
          "type": "bool"
        }
      ],
      "name": "setApprovalForAll",
      "outputs": [],
      "stateMutability": "nonpayable",
      "type": "function"
    },
    {
      "inputs": [
        {
          "internalType": "bytes4",
          "name": "interfaceId",
          "type": "bytes4"
        }
      ],
      "name": "supportsInterface",
      "outputs": [
        {
          "internalType": "bool",
          "name": "",
          "type": "bool"
        }
      ],
      "stateMutability": "view",
      "type": "function"
    },
    {
      "inputs": [],
      "name": "symbol",
      "outputs": [
        {
          "internalType": "string",
          "name": "",
          "type": "string"
        }
      ],
      "stateMutability": "view",
      "type": "function"
    },
    {
      "inputs": [
        {
          "internalType": "uint256",
          "name": "",
          "type": "uint256"
        }
      ],
      "name": "tokenToAuction",
      "outputs": [
        {
          "internalType": "uint256",
          "name": "",
          "type": "uint256"
        }
      ],
      "stateMutability": "view",
      "type": "function"
    },
    {
      "inputs": [
        {
          "internalType": "uint256",
          "name": "tokenId",
          "type": "uint256"
        }
      ],
      "name": "tokenURI",
      "outputs": [
        {
          "internalType": "string",
          "name": "",
          "type": "string"
        }
      ],
      "stateMutability": "view",
      "type": "function"
    },
    {
      "inputs": [],
      "name": "totalAuctions",
      "outputs": [
        {
          "internalType": "uint256",
          "name": "",
          "type": "uint256"
        }
      ],
      "stateMutability": "view",
      "type": "function"
    },
    {
      "inputs": [],
      "name": "totalTokens",
      "outputs": [
        {
          "internalType": "uint256",
          "name": "",
          "type": "uint256"
        }
      ],
      "stateMutability": "view",
      "type": "function"
    },
    {
      "inputs": [
        {
          "internalType": "address",
          "name": "from",
          "type": "address"
        },
        {
          "internalType": "address",
          "name": "to",
          "type": "address"
        },
        {
          "internalType": "uint256",
          "name": "tokenId",
          "type": "uint256"
        }
      ],
      "name": "transferFrom",
      "outputs": [],
      "stateMutability": "nonpayable",
      "type": "function"
    },
    {
      "inputs": [
        {
          "internalType": "uint256",
          "name": "auctionId",
          "type": "uint256"
        }
      ],
      "name": "withdraw",
      "outputs": [],
      "stateMutability": "nonpayable",
      "type": "function"
    }
  ],
  "bytecode": "0x60806040526002600955348015610014575f5ffd5b506040518060400160405280600e81526020017f4e46544d61726b6574706c6163650000000000000000000000000000000000008152506040518060400160405280600481526020017f4e46544d00000000000000000000000000000000000000000000000000000000815250815f908161008f919061032c565b50806001908161009f919061032c565b50505060016007819055503360085f6101000a81548173ffffffffffffffffffffffffffffffffffffffff021916908373ffffffffffffffffffffffffffffffffffffffff1602179055506103fb565b5f81519050919050565b7f4e487b71000000000000000000000000000000000000000000000000000000005f52604160045260245ffd5b7f4e487b71000000000000000000000000000000000000000000000000000000005f52602260045260245ffd5b5f600282049050600182168061016a57607f821691505b60208210810361017d5761017c610126565b5b50919050565b5f819050815f5260205f209050919050565b5f6020601f8301049050919050565b5f82821b905092915050565b5f600883026101df7fffffffffffffffffffffffffffffffffffffffffffffffffffffffffffffffff826101a4565b6101e986836101a4565b95508019841693508086168417925050509392505050565b5f819050919050565b5f819050919050565b5f61022d61022861022384610201565b61020a565b610201565b9050919050565b5f819050919050565b61024683610213565b61025a61025282610234565b8484546101b0565b825550505050565b5f5f905090565b610271610262565b61027c81848461023d565b505050565b5b8181101561029f576102945f82610269565b600181019050610282565b5050565b601f8211156102e4576102b581610183565b6102be84610195565b810160208510156102cd578190505b6102e16102d985610195565b830182610281565b50505b505050565b5f82821c905092915050565b5f6103045f19846008026102e9565b1980831691505092915050565b5f61031c83836102f5565b9150826002028217905092915050565b610335826100ef565b67ffffffffffffffff81111561034e5761034d6100f9565b5b6103588254610153565b6103638282856102a3565b5f60209050601f831160018114610394575f8415610382578287015190505b61038c8582610311565b8655506103f3565b601f1984166103a286610183565b5f5b828110156103c9578489015182556001820191506020850194506020810190506103a4565b868310156103e657848901516103e2601f8916826102f5565b8355505b6001600288020188555050505b505050505050565b615b1d806104085f395ff3fe6080604052600436106101f8575f3560e01c806395d89b411161010c578063bb19dd081161009f578063e0391b091161006e578063e0391b0914610749578063e57a497a14610773578063e8c58763146107b2578063e921ee6e146107ee578063e985e9c51461082a576101f8565b8063bb19dd081461066b578063c87b56dd146106a7578063cda4beef146106e3578063cf44b5d51461071f576101f8565b8063b0a9a2cd116100db578063b0a9a2cd146105cb578063b2733b39146105f3578063b88d4fde1461061b578063b9a2de3a14610643576101f8565b806395d89b41146105355780639979ef451461055f578063a22cb4651461057b578063a5b4bac2146105a3576101f8565b806342842e0e1161018f57806378bd79351161015e57806378bd79351461043f5780637e1c0c091461047b5780638c639a85146104a55780638da5cb5b146104cf5780638ddac1ef146104f9576101f8565b806342842e0e1461038357806351ed8288146103ab5780636352211e146103c757806370a0823114610403576101f8565b8063095ea7b3116101cb578063095ea7b3146102e157806316002f4a1461030957806323b872dd146103335780632e1a7d4d1461035b576101f8565b806301ffc9a7146101fc57806306fdde0314610238578063081812fc14610262578063089dc92c1461029e575b5f5ffd5b348015610207575f5ffd5b50610222600480360381019061021d91906140e8565b610866565b60405161022f919061412d565b60405180910390f35b348015610243575f5ffd5b5061024c6108c6565b60405161025991906141b6565b60405180910390f35b34801561026d575f5ffd5b5061028860048036038101906102839190614209565b610955565b6040516102959190614273565b60405180910390f35b3480156102a9575f5ffd5b506102c460048036038101906102bf9190614209565b610970565b6040516102d89897969594939291906142bb565b60405180910390f35b3480156102ec575f5ffd5b5061030760048036038101906103029190614361565b6109fe565b005b348015610314575f5ffd5b5061031d610a14565b60405161032a919061439f565b60405180910390f35b34801561033e575f5ffd5b50610359600480360381019061035491906143b8565b610a1d565b005b348015610366575f5ffd5b50610381600480360381019061037c9190614209565b610b1c565b005b34801561038e575f5ffd5b506103a960048036038101906103a491906143b8565b610c57565b005b6103c560048036038101906103c09190614209565b610c76565b005b3480156103d2575f5ffd5b506103ed60048036038101906103e89190614209565b610fe2565b6040516103fa9190614273565b60405180910390f35b34801561040e575f5ffd5b5061042960048036038101906104249190614408565b610ff3565b604051610436919061439f565b60405180910390f35b34801561044a575f5ffd5b5061046560048036038101906104609190614209565b6110a9565b6040516104729190614500565b60405180910390f35b348015610486575f5ffd5b5061048f6111ca565b60405161049c919061439f565b60405180910390f35b3480156104b0575f5ffd5b506104b96111d3565b6040516104c6919061439f565b60405180910390f35b3480156104da575f5ffd5b506104e36111d9565b6040516104f0919061451a565b60405180910390f35b348015610504575f5ffd5b5061051f600480360381019061051a9190614533565b6111fe565b60405161052c919061439f565b60405180910390f35b348015610540575f5ffd5b5061054961121e565b60405161055691906141b6565b60405180910390f35b61057960048036038101906105749190614209565b6112ae565b005b348015610586575f5ffd5b506105a1600480360381019061059c919061459b565b61161d565b005b3480156105ae575f5ffd5b506105c960048036038101906105c4919061472f565b611633565b005b3480156105d6575f5ffd5b506105f160048036038101906105ec9190614209565b61177b565b005b3480156105fe575f5ffd5b5061061960048036038101906106149190614789565b611c6c565b005b348015610626575f5ffd5b50610641600480360381019061063c9190614865565b611e53565b005b34801561064e575f5ffd5b5061066960048036038101906106649190614209565b611e78565b005b348015610676575f5ffd5b50610691600480360381019061068c9190614209565b6122d9565b60405161069e919061439f565b60405180910390f35b3480156106b2575f5ffd5b506106cd60048036038101906106c89190614209565b6122ee565b6040516106da91906141b6565b60405180910390f35b3480156106ee575f5ffd5b50610709600480360381019061070491906148e5565b6123f9565b604051610716919061439f565b60405180910390f35b34801561072a575f5ffd5b50610733612832565b6040516107409190614a7e565b60405180910390f35b348015610754575f5ffd5b5061075d612a78565b60405161076a9190614b99565b60405180910390f35b34801561077e575f5ffd5b5061079960048036038101906107949190614209565b612bc5565b6040516107a99493929190614bb9565b60405180910390f35b3480156107bd575f5ffd5b506107d860048036038101906107d39190614209565b612c1c565b6040516107e5919061439f565b60405180910390f35b3480156107f9575f5ffd5b50610814600480360381019061080f9190614408565b612c5e565b6040516108219190614b99565b60405180910390f35b348015610835575f5ffd5b50610850600480360381019061084b9190614bfc565b612eb4565b60405161085d919061412d565b60405180910390f35b5f634906490660e01b7bffffffffffffffffffffffffffffffffffffffffffffffffffffffff1916827bffffffffffffffffffffffffffffffffffffffffffffffffffffffff191614806108bf57506108be82612f42565b5b9050919050565b60605f80546108d490614c67565b80601f016020809104026020016040519081016040528092919081815260200182805461090090614c67565b801561094b5780601f106109225761010080835404028352916020019161094b565b820191905f5260205f20905b81548152906001019060200180831161092e57829003601f168201915b5050505050905090565b5f61095f82613023565b50610969826130a9565b9050919050565b600d602052805f5260405f205f91509050805f015490806001015490806002015f9054906101000a900473ffffffffffffffffffffffffffffffffffffffff1690806003015490806004015490806005015f9054906101000a900473ffffffffffffffffffffffffffffffffffffffff1690806006015490806007015f9054906101000a900460ff16905088565b610a108282610a0b6130e2565b6130e9565b5050565b5f600b54905090565b5f73ffffffffffffffffffffffffffffffffffffffff168273ffffffffffffffffffffffffffffffffffffffff1603610a8d575f6040517f64a0ae92000000000000000000000000000000000000000000000000000000008152600401610a849190614273565b60405180910390fd5b5f610aa08383610a9b6130e2565b6130fb565b90508373ffffffffffffffffffffffffffffffffffffffff168173ffffffffffffffffffffffffffffffffffffffff1614610b16578382826040517f64283d7b000000000000000000000000000000000000000000000000000000008152600401610b0d93929190614c97565b60405180910390fd5b50505050565b610b24613306565b5f600f5f8381526020019081526020015f205f3373ffffffffffffffffffffffffffffffffffffffff1673ffffffffffffffffffffffffffffffffffffffff1681526020019081526020015f205490505f8111610bb6576040517f08c379a0000000000000000000000000000000000000000000000000000000008152600401610bad90614d16565b60405180910390fd5b5f600f5f8481526020019081526020015f205f3373ffffffffffffffffffffffffffffffffffffffff1673ffffffffffffffffffffffffffffffffffffffff1681526020019081526020015f20819055503373ffffffffffffffffffffffffffffffffffffffff166108fc8290811502906040515f60405180830381858888f19350505050158015610c4a573d5f5f3e3d5ffd5b5050610c5461334c565b50565b610c7183838360405180602001604052805f815250611e53565b505050565b610c7e613306565b5f600c5f8381526020019081526020015f209050806003015f9054906101000a900460ff16610ce2576040517f08c379a0000000000000000000000000000000000000000000000000000000008152600401610cd990614d7e565b60405180910390fd5b8060020154341015610d29576040517f08c379a0000000000000000000000000000000000000000000000000000000008152600401610d2090614de6565b60405180910390fd5b806001015f9054906101000a900473ffffffffffffffffffffffffffffffffffffffff1673ffffffffffffffffffffffffffffffffffffffff163373ffffffffffffffffffffffffffffffffffffffff1603610dba576040517f08c379a0000000000000000000000000000000000000000000000000000000008152600401610db190614e4e565b60405180910390fd5b5f816001015f9054906101000a900473ffffffffffffffffffffffffffffffffffffffff1690505f826002015490505f836003015f6101000a81548160ff02191690831515021790555033836001015f6101000a81548173ffffffffffffffffffffffffffffffffffffffff021916908373ffffffffffffffffffffffffffffffffffffffff1602179055505f8360020181905550610e5a823386613356565b5f606460095483610e6b9190614e99565b610e759190614f07565b90508273ffffffffffffffffffffffffffffffffffffffff166108fc8284610e9d9190614f37565b90811502906040515f60405180830381858888f19350505050158015610ec5573d5f5f3e3d5ffd5b5060085f9054906101000a900473ffffffffffffffffffffffffffffffffffffffff1673ffffffffffffffffffffffffffffffffffffffff166108fc8290811502906040515f60405180830381858888f19350505050158015610f2a573d5f5f3e3d5ffd5b5081341115610f83573373ffffffffffffffffffffffffffffffffffffffff166108fc8334610f599190614f37565b90811502906040515f60405180830381858888f19350505050158015610f81573d5f5f3e3d5ffd5b505b3373ffffffffffffffffffffffffffffffffffffffff167f6329e40c0365262ebbff5ca819385c2b9713dcaa050ed07866d72c441395699a8684604051610fcb929190614f6a565b60405180910390a250505050610fdf61334c565b50565b5f610fec82613023565b9050919050565b5f5f73ffffffffffffffffffffffffffffffffffffffff168273ffffffffffffffffffffffffffffffffffffffff1603611064575f6040517f89c62b6400000000000000000000000000000000000000000000000000000000815260040161105b9190614273565b60405180910390fd5b60035f8373ffffffffffffffffffffffffffffffffffffffff1673ffffffffffffffffffffffffffffffffffffffff1681526020019081526020015f20549050919050565b6110b1613fdb565b600d5f8381526020019081526020015f20604051806101000160405290815f820154815260200160018201548152602001600282015f9054906101000a900473ffffffffffffffffffffffffffffffffffffffff1673ffffffffffffffffffffffffffffffffffffffff1673ffffffffffffffffffffffffffffffffffffffff1681526020016003820154815260200160048201548152602001600582015f9054906101000a900473ffffffffffffffffffffffffffffffffffffffff1673ffffffffffffffffffffffffffffffffffffffff1673ffffffffffffffffffffffffffffffffffffffff16815260200160068201548152602001600782015f9054906101000a900460ff1615151515815250509050919050565b5f600a54905090565b60095481565b60085f9054906101000a900473ffffffffffffffffffffffffffffffffffffffff1681565b600f602052815f5260405f20602052805f5260405f205f91509150505481565b60606001805461122d90614c67565b80601f016020809104026020016040519081016040528092919081815260200182805461125990614c67565b80156112a45780601f1061127b576101008083540402835291602001916112a4565b820191905f5260205f20905b81548152906001019060200180831161128757829003601f168201915b5050505050905090565b6112b6613306565b5f600d5f8381526020019081526020015f209050806007015f9054906101000a900460ff161561131b576040517f08c379a000000000000000000000000000000000000000000000000000000000815260040161131290614fdb565b60405180910390fd5b80600601544210611361576040517f08c379a000000000000000000000000000000000000000000000000000000000815260040161135890615043565b60405180910390fd5b806002015f9054906101000a900473ffffffffffffffffffffffffffffffffffffffff1673ffffffffffffffffffffffffffffffffffffffff163373ffffffffffffffffffffffffffffffffffffffff16036113f2576040517f08c379a00000000000000000000000000000000000000000000000000000000081526004016113e9906150ab565b60405180910390fd5b5f5f826004015414611414576001826004015461140f91906150c9565b61141a565b81600301545b90508034101561145f576040517f08c379a000000000000000000000000000000000000000000000000000000000815260040161145690615146565b60405180910390fd5b5f73ffffffffffffffffffffffffffffffffffffffff16826005015f9054906101000a900473ffffffffffffffffffffffffffffffffffffffff1673ffffffffffffffffffffffffffffffffffffffff161461153f578160040154600f5f8581526020019081526020015f205f846005015f9054906101000a900473ffffffffffffffffffffffffffffffffffffffff1673ffffffffffffffffffffffffffffffffffffffff1673ffffffffffffffffffffffffffffffffffffffff1681526020019081526020015f205f82825461153791906150c9565b925050819055505b34826004018190555033826005015f6101000a81548173ffffffffffffffffffffffffffffffffffffffff021916908373ffffffffffffffffffffffffffffffffffffffff16021790555061012c42836006015461159d9190614f37565b10156115c05761012c826006015f8282546115b891906150c9565b925050819055505b3373ffffffffffffffffffffffffffffffffffffffff167f0e54eff26401bf69b81b26f60bd85ef47f5d85275c1d268d84f68d6897431c478434604051611608929190614f6a565b60405180910390a2505061161a61334c565b50565b61162f6116286130e2565b83836134be565b5050565b600a5f81548092919061164590615164565b91905055505f600a54905061165a8282613627565b6116648184613644565b60405180608001604052808281526020018373ffffffffffffffffffffffffffffffffffffffff1681526020015f81526020015f1515815250600c5f8381526020019081526020015f205f820151815f01556020820151816001015f6101000a81548173ffffffffffffffffffffffffffffffffffffffff021916908373ffffffffffffffffffffffffffffffffffffffff160217905550604082015181600201556060820151816003015f6101000a81548160ff0219169083151502179055509050508173ffffffffffffffffffffffffffffffffffffffff167f0176f203df400d7bd5f1b1c9ef36c16709bf3b5d9fd35f000a6bae32393f66c38260405161176e919061439f565b60405180910390a2505050565b611783613306565b5f600d5f8381526020019081526020015f209050806007015f9054906101000a900460ff16156117e8576040517f08c379a00000000000000000000000000000000000000000000000000000000081526004016117df906151f5565b60405180910390fd5b806002015f9054906101000a900473ffffffffffffffffffffffffffffffffffffffff1673ffffffffffffffffffffffffffffffffffffffff163373ffffffffffffffffffffffffffffffffffffffff1614611879576040517f08c379a00000000000000000000000000000000000000000000000000000000081526004016118709061525d565b60405180910390fd5b806006015442106118bf576040517f08c379a00000000000000000000000000000000000000000000000000000000081526004016118b6906152eb565b60405180910390fd5b6001816007015f6101000a81548160ff0219169083151502179055505f816001015490505f600e5f8381526020019081526020015f20819055505f73ffffffffffffffffffffffffffffffffffffffff16826005015f9054906101000a900473ffffffffffffffffffffffffffffffffffffffff1673ffffffffffffffffffffffffffffffffffffffff1614611b6b5761197d30836005015f9054906101000a900473ffffffffffffffffffffffffffffffffffffffff1683613356565b816005015f9054906101000a900473ffffffffffffffffffffffffffffffffffffffff16600c5f8381526020019081526020015f206001015f6101000a81548173ffffffffffffffffffffffffffffffffffffffff021916908373ffffffffffffffffffffffffffffffffffffffff1602179055505f60646009548460040154611a079190614e99565b611a119190614f07565b9050826002015f9054906101000a900473ffffffffffffffffffffffffffffffffffffffff1673ffffffffffffffffffffffffffffffffffffffff166108fc828560040154611a609190614f37565b90811502906040515f60405180830381858888f19350505050158015611a88573d5f5f3e3d5ffd5b5060085f9054906101000a900473ffffffffffffffffffffffffffffffffffffffff1673ffffffffffffffffffffffffffffffffffffffff166108fc8290811502906040515f60405180830381858888f19350505050158015611aed573d5f5f3e3d5ffd5b50826005015f9054906101000a900473ffffffffffffffffffffffffffffffffffffffff1673ffffffffffffffffffffffffffffffffffffffff167fd2aa34a4fdbbc6dff6a3e56f46e0f3ae2a31d7785ff3487aa5c95c642acea501858560040154604051611b5d929190614f6a565b60405180910390a250611c5f565b611b9930836002015f9054906101000a900473ffffffffffffffffffffffffffffffffffffffff1683613356565b816002015f9054906101000a900473ffffffffffffffffffffffffffffffffffffffff16600c5f8381526020019081526020015f206001015f6101000a81548173ffffffffffffffffffffffffffffffffffffffff021916908373ffffffffffffffffffffffffffffffffffffffff1602179055505f73ffffffffffffffffffffffffffffffffffffffff167fd2aa34a4fdbbc6dff6a3e56f46e0f3ae2a31d7785ff3487aa5c95c642acea501845f604051611c5692919061534b565b60405180910390a25b5050611c6961334c565b50565b3373ffffffffffffffffffffffffffffffffffffffff16611c8c83610fe2565b73ffffffffffffffffffffffffffffffffffffffff1614611ce2576040517f08c379a0000000000000000000000000000000000000000000000000000000008152600401611cd9906153bc565b60405180910390fd5b5f8111611d24576040517f08c379a0000000000000000000000000000000000000000000000000000000008152600401611d1b90615424565b60405180910390fd5b5f600e5f8481526020019081526020015f20541480611d715750600d5f600e5f8581526020019081526020015f205481526020019081526020015f206007015f9054906101000a900460ff165b611db0576040517f08c379a0000000000000000000000000000000000000000000000000000000008152600401611da79061548c565b60405180910390fd5b611dba30836109fe565b80600c5f8481526020019081526020015f20600201819055506001600c5f8481526020019081526020015f206003015f6101000a81548160ff0219169083151502179055503373ffffffffffffffffffffffffffffffffffffffff167f5f9c03de076f5063cd3ebcfe8ef7aa8af378e4b35a83c77ba9777e97083879a28383604051611e47929190614f6a565b60405180910390a25050565b611e5e848484610a1d565b611e72611e696130e2565b8585858561369e565b50505050565b611e80613306565b5f600d5f8381526020019081526020015f209050806007015f9054906101000a900460ff1615611ee5576040517f08c379a0000000000000000000000000000000000000000000000000000000008152600401611edc906151f5565b60405180910390fd5b8060060154421015611f2c576040517f08c379a0000000000000000000000000000000000000000000000000000000008152600401611f23906154f4565b60405180910390fd5b6001816007015f6101000a81548160ff0219169083151502179055505f816001015490505f600e5f8381526020019081526020015f20819055505f73ffffffffffffffffffffffffffffffffffffffff16826005015f9054906101000a900473ffffffffffffffffffffffffffffffffffffffff1673ffffffffffffffffffffffffffffffffffffffff16146121d857611fea30836005015f9054906101000a900473ffffffffffffffffffffffffffffffffffffffff1683613356565b816005015f9054906101000a900473ffffffffffffffffffffffffffffffffffffffff16600c5f8381526020019081526020015f206001015f6101000a81548173ffffffffffffffffffffffffffffffffffffffff021916908373ffffffffffffffffffffffffffffffffffffffff1602179055505f606460095484600401546120749190614e99565b61207e9190614f07565b9050826002015f9054906101000a900473ffffffffffffffffffffffffffffffffffffffff1673ffffffffffffffffffffffffffffffffffffffff166108fc8285600401546120cd9190614f37565b90811502906040515f60405180830381858888f193505050501580156120f5573d5f5f3e3d5ffd5b5060085f9054906101000a900473ffffffffffffffffffffffffffffffffffffffff1673ffffffffffffffffffffffffffffffffffffffff166108fc8290811502906040515f60405180830381858888f1935050505015801561215a573d5f5f3e3d5ffd5b50826005015f9054906101000a900473ffffffffffffffffffffffffffffffffffffffff1673ffffffffffffffffffffffffffffffffffffffff167fd2aa34a4fdbbc6dff6a3e56f46e0f3ae2a31d7785ff3487aa5c95c642acea5018585600401546040516121ca929190614f6a565b60405180910390a2506122cc565b61220630836002015f9054906101000a900473ffffffffffffffffffffffffffffffffffffffff1683613356565b816002015f9054906101000a900473ffffffffffffffffffffffffffffffffffffffff16600c5f8381526020019081526020015f206001015f6101000a81548173ffffffffffffffffffffffffffffffffffffffff021916908373ffffffffffffffffffffffffffffffffffffffff1602179055505f73ffffffffffffffffffffffffffffffffffffffff167fd2aa34a4fdbbc6dff6a3e56f46e0f3ae2a31d7785ff3487aa5c95c642acea501845f6040516122c392919061534b565b60405180910390a25b50506122d661334c565b50565b600e602052805f5260405f205f915090505481565b60606122f982613023565b505f60065f8481526020019081526020015f20805461231790614c67565b80601f016020809104026020016040519081016040528092919081815260200182805461234390614c67565b801561238e5780601f106123655761010080835404028352916020019161238e565b820191905f5260205f20905b81548152906001019060200180831161237157829003601f168201915b505050505090505f61239e61384a565b90505f8151036123b25781925050506123f4565b5f825111156123e65780826040516020016123ce92919061554c565b604051602081830303815290604052925050506123f4565b6123ef84613860565b925050505b919050565b5f3373ffffffffffffffffffffffffffffffffffffffff1661241a85610fe2565b73ffffffffffffffffffffffffffffffffffffffff1614612470576040517f08c379a0000000000000000000000000000000000000000000000000000000008152600401612467906153bc565b60405180910390fd5b5f83116124b2576040517f08c379a00000000000000000000000000000000000000000000000000000000081526004016124a9906155b9565b60405180910390fd5b603c82101580156124c6575062278d008211155b612505576040517f08c379a00000000000000000000000000000000000000000000000000000000081526004016124fc90615621565b60405180910390fd5b5f600e5f8681526020019081526020015f205414806125525750600d5f600e5f8781526020019081526020015f205481526020019081526020015f206007015f9054906101000a900460ff165b612591576040517f08c379a000000000000000000000000000000000000000000000000000000000815260040161258890615689565b60405180910390fd5b600c5f8581526020019081526020015f206003015f9054906101000a900460ff16156125f2576040517f08c379a00000000000000000000000000000000000000000000000000000000081526004016125e9906156f1565b60405180910390fd5b6125fd333086613356565b600b5f81548092919061260f90615164565b9190505550600b5490506040518061010001604052808281526020018581526020013373ffffffffffffffffffffffffffffffffffffffff1681526020018481526020015f81526020015f73ffffffffffffffffffffffffffffffffffffffff168152602001834261268191906150c9565b81526020015f1515815250600d5f8381526020019081526020015f205f820151815f0155602082015181600101556040820151816002015f6101000a81548173ffffffffffffffffffffffffffffffffffffffff021916908373ffffffffffffffffffffffffffffffffffffffff160217905550606082015181600301556080820151816004015560a0820151816005015f6101000a81548173ffffffffffffffffffffffffffffffffffffffff021916908373ffffffffffffffffffffffffffffffffffffffff16021790555060c0820151816006015560e0820151816007015f6101000a81548160ff02191690831515021790555090505080600e5f8681526020019081526020015f208190555030600c5f8681526020019081526020015f206001015f6101000a81548173ffffffffffffffffffffffffffffffffffffffff021916908373ffffffffffffffffffffffffffffffffffffffff1602179055507fa9c8dfcda5664a5a124c713e386da27de87432d5b668e79458501eb296389ba7818585854261281391906150c9565b604051612823949392919061570f565b60405180910390a19392505050565b60605f5f90505f600190505b600b54811161288e57600d5f8281526020019081526020015f206007015f9054906101000a900460ff1661287b57818061287790615164565b9250505b808061288690615164565b91505061283e565b505f8167ffffffffffffffff8111156128aa576128a96145e1565b5b6040519080825280602002602001820160405280156128e357816020015b6128d0613fdb565b8152602001906001900390816128c85790505b5090505f5f90505f600190505b600b548111612a6e57600d5f8281526020019081526020015f206007015f9054906101000a900460ff16612a5b57600d5f8281526020019081526020015f20604051806101000160405290815f820154815260200160018201548152602001600282015f9054906101000a900473ffffffffffffffffffffffffffffffffffffffff1673ffffffffffffffffffffffffffffffffffffffff1673ffffffffffffffffffffffffffffffffffffffff1681526020016003820154815260200160048201548152602001600582015f9054906101000a900473ffffffffffffffffffffffffffffffffffffffff1673ffffffffffffffffffffffffffffffffffffffff1673ffffffffffffffffffffffffffffffffffffffff16815260200160068201548152602001600782015f9054906101000a900460ff161515151581525050838380612a3c90615164565b945081518110612a4f57612a4e615752565b5b60200260200101819052505b8080612a6690615164565b9150506128f0565b5081935050505090565b60605f600a5467ffffffffffffffff811115612a9757612a966145e1565b5b604051908082528060200260200182016040528015612ad057816020015b612abd614046565b815260200190600190039081612ab55790505b5090505f600190505b600a548111612bbd57600c5f8281526020019081526020015f206040518060800160405290815f8201548152602001600182015f9054906101000a900473ffffffffffffffffffffffffffffffffffffffff1673ffffffffffffffffffffffffffffffffffffffff1673ffffffffffffffffffffffffffffffffffffffff16815260200160028201548152602001600382015f9054906101000a900460ff16151515158152505082600183612b8e9190614f37565b81518110612b9f57612b9e615752565b5b60200260200101819052508080612bb590615164565b915050612ad9565b508091505090565b600c602052805f5260405f205f91509050805f015490806001015f9054906101000a900473ffffffffffffffffffffffffffffffffffffffff1690806002015490806003015f9054906101000a900460ff16905084565b5f5f600d5f8481526020019081526020015f20905080600601544210612c45575f915050612c59565b428160060154612c559190614f37565b9150505b919050565b60605f5f90505f600190505b600a548111612cfb578373ffffffffffffffffffffffffffffffffffffffff16600c5f8381526020019081526020015f206001015f9054906101000a900473ffffffffffffffffffffffffffffffffffffffff1673ffffffffffffffffffffffffffffffffffffffff1603612ce8578180612ce490615164565b9250505b8080612cf390615164565b915050612c6a565b505f8167ffffffffffffffff811115612d1757612d166145e1565b5b604051908082528060200260200182016040528015612d5057816020015b612d3d614046565b815260200190600190039081612d355790505b5090505f5f90505f600190505b600a548111612ea8578573ffffffffffffffffffffffffffffffffffffffff16600c5f8381526020019081526020015f206001015f9054906101000a900473ffffffffffffffffffffffffffffffffffffffff1673ffffffffffffffffffffffffffffffffffffffff1603612e9557600c5f8281526020019081526020015f206040518060800160405290815f8201548152602001600182015f9054906101000a900473ffffffffffffffffffffffffffffffffffffffff1673ffffffffffffffffffffffffffffffffffffffff1673ffffffffffffffffffffffffffffffffffffffff16815260200160028201548152602001600382015f9054906101000a900460ff161515151581525050838380612e7690615164565b945081518110612e8957612e88615752565b5b60200260200101819052505b8080612ea090615164565b915050612d5d565b50819350505050919050565b5f60055f8473ffffffffffffffffffffffffffffffffffffffff1673ffffffffffffffffffffffffffffffffffffffff1681526020019081526020015f205f8373ffffffffffffffffffffffffffffffffffffffff1673ffffffffffffffffffffffffffffffffffffffff1681526020019081526020015f205f9054906101000a900460ff16905092915050565b5f7f80ac58cd000000000000000000000000000000000000000000000000000000007bffffffffffffffffffffffffffffffffffffffffffffffffffffffff1916827bffffffffffffffffffffffffffffffffffffffffffffffffffffffff1916148061300c57507f5b5e139f000000000000000000000000000000000000000000000000000000007bffffffffffffffffffffffffffffffffffffffffffffffffffffffff1916827bffffffffffffffffffffffffffffffffffffffffffffffffffffffff1916145b8061301c575061301b826138c6565b5b9050919050565b5f5f61302e8361392f565b90505f73ffffffffffffffffffffffffffffffffffffffff168173ffffffffffffffffffffffffffffffffffffffff16036130a057826040517f7e273289000000000000000000000000000000000000000000000000000000008152600401613097919061439f565b60405180910390fd5b80915050919050565b5f60045f8381526020019081526020015f205f9054906101000a900473ffffffffffffffffffffffffffffffffffffffff169050919050565b5f33905090565b6130f68383836001613968565b505050565b5f5f6131068461392f565b90505f73ffffffffffffffffffffffffffffffffffffffff168373ffffffffffffffffffffffffffffffffffffffff161461314757613146818486613b27565b5b5f73ffffffffffffffffffffffffffffffffffffffff168173ffffffffffffffffffffffffffffffffffffffff16146131d2576131865f855f5f613968565b600160035f8373ffffffffffffffffffffffffffffffffffffffff1673ffffffffffffffffffffffffffffffffffffffff1681526020019081526020015f205f82825403925050819055505b5f73ffffffffffffffffffffffffffffffffffffffff168573ffffffffffffffffffffffffffffffffffffffff161461325157600160035f8773ffffffffffffffffffffffffffffffffffffffff1673ffffffffffffffffffffffffffffffffffffffff1681526020019081526020015f205f82825401925050819055505b8460025f8681526020019081526020015f205f6101000a81548173ffffffffffffffffffffffffffffffffffffffff021916908373ffffffffffffffffffffffffffffffffffffffff160217905550838573ffffffffffffffffffffffffffffffffffffffff168273ffffffffffffffffffffffffffffffffffffffff167fddf252ad1be2c89b69c2b068fc378daa952ba7f163c4a11628f55a4df523b3ef60405160405180910390a4809150509392505050565b600260075403613342576040517f3ee5aeb500000000000000000000000000000000000000000000000000000000815260040160405180910390fd5b6002600781905550565b6001600781905550565b5f73ffffffffffffffffffffffffffffffffffffffff168273ffffffffffffffffffffffffffffffffffffffff16036133c6575f6040517f64a0ae920000000000000000000000000000000000000000000000000000000081526004016133bd9190614273565b60405180910390fd5b5f6133d283835f6130fb565b90505f73ffffffffffffffffffffffffffffffffffffffff168173ffffffffffffffffffffffffffffffffffffffff160361344457816040517f7e27328900000000000000000000000000000000000000000000000000000000815260040161343b919061439f565b60405180910390fd5b8373ffffffffffffffffffffffffffffffffffffffff168173ffffffffffffffffffffffffffffffffffffffff16146134b8578382826040517f64283d7b0000000000000000000000000000000000000000000000000000000081526004016134af93929190614c97565b60405180910390fd5b50505050565b5f73ffffffffffffffffffffffffffffffffffffffff168273ffffffffffffffffffffffffffffffffffffffff160361352e57816040517f5b08ba180000000000000000000000000000000000000000000000000000000081526004016135259190614273565b60405180910390fd5b8060055f8573ffffffffffffffffffffffffffffffffffffffff1673ffffffffffffffffffffffffffffffffffffffff1681526020019081526020015f205f8473ffffffffffffffffffffffffffffffffffffffff1673ffffffffffffffffffffffffffffffffffffffff1681526020019081526020015f205f6101000a81548160ff0219169083151502179055508173ffffffffffffffffffffffffffffffffffffffff168373ffffffffffffffffffffffffffffffffffffffff167f17307eab39ab6107e8899845ad3d59bd9653f200f220920489ca2b5937696c318360405161361a919061412d565b60405180910390a3505050565b613640828260405180602001604052805f815250613bea565b5050565b8060065f8481526020019081526020015f2090816136629190615916565b507ff8e1a15aba9398e019f0b49df1a4fde98ee17ae345cb5f6b5e2c27f5033e8ce782604051613692919061439f565b60405180910390a15050565b5f8373ffffffffffffffffffffffffffffffffffffffff163b1115613843578273ffffffffffffffffffffffffffffffffffffffff1663150b7a02868685856040518563ffffffff1660e01b81526004016136fc9493929190615a37565b6020604051808303815f875af192505050801561373757506040513d601f19601f820116820180604052508101906137349190615a95565b60015b6137b8573d805f8114613765576040519150601f19603f3d011682016040523d82523d5f602084013e61376a565b606091505b505f8151036137b057836040517f64a0ae920000000000000000000000000000000000000000000000000000000081526004016137a79190614273565b60405180910390fd5b805160208201fd5b63150b7a0260e01b7bffffffffffffffffffffffffffffffffffffffffffffffffffffffff1916817bffffffffffffffffffffffffffffffffffffffffffffffffffffffff19161461384157836040517f64a0ae920000000000000000000000000000000000000000000000000000000081526004016138389190614273565b60405180910390fd5b505b5050505050565b606060405180602001604052805f815250905090565b606061386b82613023565b505f61387561384a565b90505f8151116138935760405180602001604052805f8152506138be565b8061389d84613c0d565b6040516020016138ae92919061554c565b6040516020818303038152906040525b915050919050565b5f7f01ffc9a7000000000000000000000000000000000000000000000000000000007bffffffffffffffffffffffffffffffffffffffffffffffffffffffff1916827bffffffffffffffffffffffffffffffffffffffffffffffffffffffff1916149050919050565b5f60025f8381526020019081526020015f205f9054906101000a900473ffffffffffffffffffffffffffffffffffffffff169050919050565b80806139a057505f73ffffffffffffffffffffffffffffffffffffffff168273ffffffffffffffffffffffffffffffffffffffff1614155b15613ad2575f6139af84613023565b90505f73ffffffffffffffffffffffffffffffffffffffff168373ffffffffffffffffffffffffffffffffffffffff1614158015613a1957508273ffffffffffffffffffffffffffffffffffffffff168173ffffffffffffffffffffffffffffffffffffffff1614155b8015613a2c5750613a2a8184612eb4565b155b15613a6e57826040517fa9fbf51f000000000000000000000000000000000000000000000000000000008152600401613a659190614273565b60405180910390fd5b8115613ad057838573ffffffffffffffffffffffffffffffffffffffff168273ffffffffffffffffffffffffffffffffffffffff167f8c5be1e5ebec7d5bd14f71427d1e84f3dd0314c0f7b2291e5b200ac8c7c3b92560405160405180910390a45b505b8360045f8581526020019081526020015f205f6101000a81548173ffffffffffffffffffffffffffffffffffffffff021916908373ffffffffffffffffffffffffffffffffffffffff16021790555050505050565b613b32838383613cd7565b613be5575f73ffffffffffffffffffffffffffffffffffffffff168373ffffffffffffffffffffffffffffffffffffffff1603613ba657806040517f7e273289000000000000000000000000000000000000000000000000000000008152600401613b9d919061439f565b60405180910390fd5b81816040517f177e802f000000000000000000000000000000000000000000000000000000008152600401613bdc929190615ac0565b60405180910390fd5b505050565b613bf48383613d97565b613c08613bff6130e2565b5f85858561369e565b505050565b60605f6001613c1b84613e8a565b0190505f8167ffffffffffffffff811115613c3957613c386145e1565b5b6040519080825280601f01601f191660200182016040528015613c6b5781602001600182028036833780820191505090505b5090505f82602083010190505b600115613ccc578080600190039150507f3031323334353637383961626364656600000000000000000000000000000000600a86061a8153600a8581613cc157613cc0614eda565b5b0494505f8503613c78575b819350505050919050565b5f5f73ffffffffffffffffffffffffffffffffffffffff168373ffffffffffffffffffffffffffffffffffffffff1614158015613d8e57508273ffffffffffffffffffffffffffffffffffffffff168473ffffffffffffffffffffffffffffffffffffffff161480613d4f5750613d4e8484612eb4565b5b80613d8d57508273ffffffffffffffffffffffffffffffffffffffff16613d75836130a9565b73ffffffffffffffffffffffffffffffffffffffff16145b5b90509392505050565b5f73ffffffffffffffffffffffffffffffffffffffff168273ffffffffffffffffffffffffffffffffffffffff1603613e07575f6040517f64a0ae92000000000000000000000000000000000000000000000000000000008152600401613dfe9190614273565b60405180910390fd5b5f613e1383835f6130fb565b90505f73ffffffffffffffffffffffffffffffffffffffff168173ffffffffffffffffffffffffffffffffffffffff1614613e85575f6040517f73c6ac6e000000000000000000000000000000000000000000000000000000008152600401613e7c9190614273565b60405180910390fd5b505050565b5f5f5f90507a184f03e93ff9f4daa797ed6e38ed64bf6a1f0100000000000000008310613ee6577a184f03e93ff9f4daa797ed6e38ed64bf6a1f0100000000000000008381613edc57613edb614eda565b5b0492506040810190505b6d04ee2d6d415b85acef81000000008310613f23576d04ee2d6d415b85acef81000000008381613f1957613f18614eda565b5b0492506020810190505b662386f26fc100008310613f5257662386f26fc100008381613f4857613f47614eda565b5b0492506010810190505b6305f5e1008310613f7b576305f5e1008381613f7157613f70614eda565b5b0492506008810190505b6127108310613fa0576127108381613f9657613f95614eda565b5b0492506004810190505b60648310613fc35760648381613fb957613fb8614eda565b5b0492506002810190505b600a8310613fd2576001810190505b80915050919050565b6040518061010001604052805f81526020015f81526020015f73ffffffffffffffffffffffffffffffffffffffff1681526020015f81526020015f81526020015f73ffffffffffffffffffffffffffffffffffffffff1681526020015f81526020015f151581525090565b60405180608001604052805f81526020015f73ffffffffffffffffffffffffffffffffffffffff1681526020015f81526020015f151581525090565b5f604051905090565b5f5ffd5b5f5ffd5b5f7fffffffff0000000000000000000000000000000000000000000000000000000082169050919050565b6140c781614093565b81146140d1575f5ffd5b50565b5f813590506140e2816140be565b92915050565b5f602082840312156140fd576140fc61408b565b5b5f61410a848285016140d4565b91505092915050565b5f8115159050919050565b61412781614113565b82525050565b5f6020820190506141405f83018461411e565b92915050565b5f81519050919050565b5f82825260208201905092915050565b8281835e5f83830152505050565b5f601f19601f8301169050919050565b5f61418882614146565b6141928185614150565b93506141a2818560208601614160565b6141ab8161416e565b840191505092915050565b5f6020820190508181035f8301526141ce818461417e565b905092915050565b5f819050919050565b6141e8816141d6565b81146141f2575f5ffd5b50565b5f81359050614203816141df565b92915050565b5f6020828403121561421e5761421d61408b565b5b5f61422b848285016141f5565b91505092915050565b5f73ffffffffffffffffffffffffffffffffffffffff82169050919050565b5f61425d82614234565b9050919050565b61426d81614253565b82525050565b5f6020820190506142865f830184614264565b92915050565b614295816141d6565b82525050565b5f6142a582614234565b9050919050565b6142b58161429b565b82525050565b5f610100820190506142cf5f83018b61428c565b6142dc602083018a61428c565b6142e960408301896142ac565b6142f6606083018861428c565b614303608083018761428c565b61431060a08301866142ac565b61431d60c083018561428c565b61432a60e083018461411e565b9998505050505050505050565b61434081614253565b811461434a575f5ffd5b50565b5f8135905061435b81614337565b92915050565b5f5f604083850312156143775761437661408b565b5b5f6143848582860161434d565b9250506020614395858286016141f5565b9150509250929050565b5f6020820190506143b25f83018461428c565b92915050565b5f5f5f606084860312156143cf576143ce61408b565b5b5f6143dc8682870161434d565b93505060206143ed8682870161434d565b92505060406143fe868287016141f5565b9150509250925092565b5f6020828403121561441d5761441c61408b565b5b5f61442a8482850161434d565b91505092915050565b61443c816141d6565b82525050565b61444b8161429b565b82525050565b61445a81614113565b82525050565b61010082015f8201516144755f850182614433565b5060208201516144886020850182614433565b50604082015161449b6040850182614442565b5060608201516144ae6060850182614433565b5060808201516144c16080850182614433565b5060a08201516144d460a0850182614442565b5060c08201516144e760c0850182614433565b5060e08201516144fa60e0850182614451565b50505050565b5f610100820190506145145f830184614460565b92915050565b5f60208201905061452d5f8301846142ac565b92915050565b5f5f604083850312156145495761454861408b565b5b5f614556858286016141f5565b92505060206145678582860161434d565b9150509250929050565b61457a81614113565b8114614584575f5ffd5b50565b5f8135905061459581614571565b92915050565b5f5f604083850312156145b1576145b061408b565b5b5f6145be8582860161434d565b92505060206145cf85828601614587565b9150509250929050565b5f5ffd5b5f5ffd5b7f4e487b71000000000000000000000000000000000000000000000000000000005f52604160045260245ffd5b6146178261416e565b810181811067ffffffffffffffff82111715614636576146356145e1565b5b80604052505050565b5f614648614082565b9050614654828261460e565b919050565b5f67ffffffffffffffff821115614673576146726145e1565b5b61467c8261416e565b9050602081019050919050565b828183375f83830152505050565b5f6146a96146a484614659565b61463f565b9050828152602081018484840111156146c5576146c46145dd565b5b6146d0848285614689565b509392505050565b5f82601f8301126146ec576146eb6145d9565b5b81356146fc848260208601614697565b91505092915050565b61470e8161429b565b8114614718575f5ffd5b50565b5f8135905061472981614705565b92915050565b5f5f604083850312156147455761474461408b565b5b5f83013567ffffffffffffffff8111156147625761476161408f565b5b61476e858286016146d8565b925050602061477f8582860161471b565b9150509250929050565b5f5f6040838503121561479f5761479e61408b565b5b5f6147ac858286016141f5565b92505060206147bd858286016141f5565b9150509250929050565b5f67ffffffffffffffff8211156147e1576147e06145e1565b5b6147ea8261416e565b9050602081019050919050565b5f614809614804846147c7565b61463f565b905082815260208101848484011115614825576148246145dd565b5b614830848285614689565b509392505050565b5f82601f83011261484c5761484b6145d9565b5b813561485c8482602086016147f7565b91505092915050565b5f5f5f5f6080858703121561487d5761487c61408b565b5b5f61488a8782880161434d565b945050602061489b8782880161434d565b93505060406148ac878288016141f5565b925050606085013567ffffffffffffffff8111156148cd576148cc61408f565b5b6148d987828801614838565b91505092959194509250565b5f5f5f606084860312156148fc576148fb61408b565b5b5f614909868287016141f5565b935050602061491a868287016141f5565b925050604061492b868287016141f5565b9150509250925092565b5f81519050919050565b5f82825260208201905092915050565b5f819050602082019050919050565b61010082015f8201516149735f850182614433565b5060208201516149866020850182614433565b5060408201516149996040850182614442565b5060608201516149ac6060850182614433565b5060808201516149bf6080850182614433565b5060a08201516149d260a0850182614442565b5060c08201516149e560c0850182614433565b5060e08201516149f860e0850182614451565b50505050565b5f614a09838361495e565b6101008301905092915050565b5f602082019050919050565b5f614a2c82614935565b614a36818561493f565b9350614a418361494f565b805f5b83811015614a71578151614a5888826149fe565b9750614a6383614a16565b925050600181019050614a44565b5085935050505092915050565b5f6020820190508181035f830152614a968184614a22565b905092915050565b5f81519050919050565b5f82825260208201905092915050565b5f819050602082019050919050565b608082015f820151614adb5f850182614433565b506020820151614aee6020850182614442565b506040820151614b016040850182614433565b506060820151614b146060850182614451565b50505050565b5f614b258383614ac7565b60808301905092915050565b5f602082019050919050565b5f614b4782614a9e565b614b518185614aa8565b9350614b5c83614ab8565b805f5b83811015614b8c578151614b738882614b1a565b9750614b7e83614b31565b925050600181019050614b5f565b5085935050505092915050565b5f6020820190508181035f830152614bb18184614b3d565b905092915050565b5f608082019050614bcc5f83018761428c565b614bd960208301866142ac565b614be6604083018561428c565b614bf3606083018461411e565b95945050505050565b5f5f60408385031215614c1257614c1161408b565b5b5f614c1f8582860161434d565b9250506020614c308582860161434d565b9150509250929050565b7f4e487b71000000000000000000000000000000000000000000000000000000005f52602260045260245ffd5b5f6002820490506001821680614c7e57607f821691505b602082108103614c9157614c90614c3a565b5b50919050565b5f606082019050614caa5f830186614264565b614cb7602083018561428c565b614cc46040830184614264565b949350505050565b7f4e6f7468696e6720746f207769746864726177000000000000000000000000005f82015250565b5f614d00601383614150565b9150614d0b82614ccc565b602082019050919050565b5f6020820190508181035f830152614d2d81614cf4565b9050919050565b7f4e4654206e6f7420666f722073616c65000000000000000000000000000000005f82015250565b5f614d68601083614150565b9150614d7382614d34565b602082019050919050565b5f6020820190508181035f830152614d9581614d5c565b9050919050565b7f496e73756666696369656e74207061796d656e740000000000000000000000005f82015250565b5f614dd0601483614150565b9150614ddb82614d9c565b602082019050919050565b5f6020820190508181035f830152614dfd81614dc4565b9050919050565b7f43616e6e6f742062757920796f7572206f776e204e46540000000000000000005f82015250565b5f614e38601783614150565b9150614e4382614e04565b602082019050919050565b5f6020820190508181035f830152614e6581614e2c565b9050919050565b7f4e487b71000000000000000000000000000000000000000000000000000000005f52601160045260245ffd5b5f614ea3826141d6565b9150614eae836141d6565b9250828202614ebc816141d6565b91508282048414831517614ed357614ed2614e6c565b5b5092915050565b7f4e487b71000000000000000000000000000000000000000000000000000000005f52601260045260245ffd5b5f614f11826141d6565b9150614f1c836141d6565b925082614f2c57614f2b614eda565b5b828204905092915050565b5f614f41826141d6565b9150614f4c836141d6565b9250828203905081811115614f6457614f63614e6c565b5b92915050565b5f604082019050614f7d5f83018561428c565b614f8a602083018461428c565b9392505050565b7f41756374696f6e20656e646564000000000000000000000000000000000000005f82015250565b5f614fc5600d83614150565b9150614fd082614f91565b602082019050919050565b5f6020820190508181035f830152614ff281614fb9565b9050919050565b7f41756374696f6e206578706972656400000000000000000000000000000000005f82015250565b5f61502d600f83614150565b915061503882614ff9565b602082019050919050565b5f6020820190508181035f83015261505a81615021565b9050919050565b7f53656c6c65722063616e6e6f74206269640000000000000000000000000000005f82015250565b5f615095601183614150565b91506150a082615061565b602082019050919050565b5f6020820190508181035f8301526150c281615089565b9050919050565b5f6150d3826141d6565b91506150de836141d6565b92508282019050808211156150f6576150f5614e6c565b5b92915050565b7f42696420746f6f206c6f770000000000000000000000000000000000000000005f82015250565b5f615130600b83614150565b915061513b826150fc565b602082019050919050565b5f6020820190508181035f83015261515d81615124565b9050919050565b5f61516e826141d6565b91507fffffffffffffffffffffffffffffffffffffffffffffffffffffffffffffffff82036151a05761519f614e6c565b5b600182019050919050565b7f416c726561647920656e646564000000000000000000000000000000000000005f82015250565b5f6151df600d83614150565b91506151ea826151ab565b602082019050919050565b5f6020820190508181035f83015261520c816151d3565b9050919050565b7f4f6e6c792073656c6c65722063616e20656e64206561726c79000000000000005f82015250565b5f615247601983614150565b915061525282615213565b602082019050919050565b5f6020820190508181035f8301526152748161523b565b9050919050565b7f41756374696f6e20616c726561647920657870697265642c2075736520656e645f8201527f41756374696f6e28290000000000000000000000000000000000000000000000602082015250565b5f6152d5602983614150565b91506152e08261527b565b604082019050919050565b5f6020820190508181035f830152615302816152c9565b9050919050565b5f819050919050565b5f819050919050565b5f61533561533061532b84615309565b615312565b6141d6565b9050919050565b6153458161531b565b82525050565b5f60408201905061535e5f83018561428c565b61536b602083018461533c565b9392505050565b7f4e6f74204e4654206f776e6572000000000000000000000000000000000000005f82015250565b5f6153a6600d83614150565b91506153b182615372565b602082019050919050565b5f6020820190508181035f8301526153d38161539a565b9050919050565b7f5072696365206d757374206265203e20300000000000000000000000000000005f82015250565b5f61540e601183614150565b9150615419826153da565b602082019050919050565b5f6020820190508181035f83015261543b81615402565b9050919050565b7f4e465420697320696e2061756374696f6e0000000000000000000000000000005f82015250565b5f615476601183614150565b915061548182615442565b602082019050919050565b5f6020820190508181035f8301526154a38161546a565b9050919050565b7f41756374696f6e207374696c6c2072756e6e696e6700000000000000000000005f82015250565b5f6154de601583614150565b91506154e9826154aa565b602082019050919050565b5f6020820190508181035f83015261550b816154d2565b9050919050565b5f81905092915050565b5f61552682614146565b6155308185615512565b9350615540818560208601614160565b80840191505092915050565b5f615557828561551c565b9150615563828461551c565b91508190509392505050565b7f5374617274696e67207072696365206d757374206265203e20300000000000005f82015250565b5f6155a3601a83614150565b91506155ae8261556f565b602082019050919050565b5f6020820190508181035f8301526155d081615597565b9050919050565b7f496e76616c6964206475726174696f6e000000000000000000000000000000005f82015250565b5f61560b601083614150565b9150615616826155d7565b602082019050919050565b5f6020820190508181035f830152615638816155ff565b9050919050565b7f41756374696f6e20616c726561647920616374697665000000000000000000005f82015250565b5f615673601683614150565b915061567e8261563f565b602082019050919050565b5f6020820190508181035f8301526156a081615667565b9050919050565b7f52656d6f7665206669786564206c697374696e672066697273740000000000005f82015250565b5f6156db601a83614150565b91506156e6826156a7565b602082019050919050565b5f6020820190508181035f830152615708816156cf565b9050919050565b5f6080820190506157225f83018761428c565b61572f602083018661428c565b61573c604083018561428c565b615749606083018461428c565b95945050505050565b7f4e487b71000000000000000000000000000000000000000000000000000000005f52603260045260245ffd5b5f819050815f5260205f209050919050565b5f6020601f8301049050919050565b5f82821b905092915050565b5f600883026157db7fffffffffffffffffffffffffffffffffffffffffffffffffffffffffffffffff826157a0565b6157e586836157a0565b95508019841693508086168417925050509392505050565b5f61581761581261580d846141d6565b615312565b6141d6565b9050919050565b5f819050919050565b615830836157fd565b61584461583c8261581e565b8484546157ac565b825550505050565b5f5f905090565b61585b61584c565b615866818484615827565b505050565b5b818110156158895761587e5f82615853565b60018101905061586c565b5050565b601f8211156158ce5761589f8161577f565b6158a884615791565b810160208510156158b7578190505b6158cb6158c385615791565b83018261586b565b50505b505050565b5f82821c905092915050565b5f6158ee5f19846008026158d3565b1980831691505092915050565b5f61590683836158df565b9150826002028217905092915050565b61591f82614146565b67ffffffffffffffff811115615938576159376145e1565b5b6159428254614c67565b61594d82828561588d565b5f60209050601f83116001811461597e575f841561596c578287015190505b61597685826158fb565b8655506159dd565b601f19841661598c8661577f565b5f5b828110156159b35784890151825560018201915060208501945060208101905061598e565b868310156159d057848901516159cc601f8916826158df565b8355505b6001600288020188555050505b505050505050565b5f81519050919050565b5f82825260208201905092915050565b5f615a09826159e5565b615a1381856159ef565b9350615a23818560208601614160565b615a2c8161416e565b840191505092915050565b5f608082019050615a4a5f830187614264565b615a576020830186614264565b615a64604083018561428c565b8181036060830152615a7681846159ff565b905095945050505050565b5f81519050615a8f816140be565b92915050565b5f60208284031215615aaa57615aa961408b565b5b5f615ab784828501615a81565b91505092915050565b5f604082019050615ad35f830185614264565b615ae0602083018461428c565b939250505056fea2646970667358221220ced7f346a63522fcdec75ccc5a3ada045ed51471b9615b5eb684f6b9f2d9ffbc64736f6c634300081c0033",
  "linkReferences": {},
  "deployedLinkReferences": {},
  "immutableReferences": {},
  "inputSourceName": "project/contracts/NFTMarketplace.sol",
  "buildInfoId": "solc-0_8_28-e5653f2400c2e57b340a28e1c8295e6e949f53ef"
}